{
  "contractName": "Election",
  "abi": [
    {
      "inputs": [],
      "payable": false,
      "stateMutability": "nonpayable",
      "type": "constructor"
    },
    {
      "constant": true,
      "inputs": [],
      "name": "waifu",
      "outputs": [
        {
          "internalType": "string",
          "name": "",
          "type": "string"
        }
      ],
      "payable": false,
      "stateMutability": "view",
      "type": "function"
    },
    {
      "constant": true,
      "inputs": [],
      "name": "waifuCount",
      "outputs": [
        {
          "internalType": "uint256",
          "name": "",
          "type": "uint256"
        }
      ],
      "payable": false,
      "stateMutability": "view",
      "type": "function"
    },
    {
      "constant": true,
      "inputs": [
        {
          "internalType": "uint256",
          "name": "",
          "type": "uint256"
        }
      ],
      "name": "waifus",
      "outputs": [
        {
          "internalType": "uint256",
          "name": "id",
          "type": "uint256"
        },
        {
          "internalType": "string",
          "name": "name",
          "type": "string"
        },
        {
          "internalType": "uint256",
          "name": "voteCount",
          "type": "uint256"
        }
      ],
      "payable": false,
      "stateMutability": "view",
      "type": "function"
    }
  ],
  "bytecode": "0x608060405234801561001057600080fd5b506100556040518060400160405280600781526020017f576169667520310000000000000000000000000000000000000000000000000081525061009e60201b60201c565b6100996040518060400160405280600781526020017f576169667520320000000000000000000000000000000000000000000000000081525061009e60201b60201c565b6101be565b6001600081548092919060010191905055506040518060600160405280600154815260200182815260200160008152506000806001548152602001908152602001600020600082015181600001556020820151816001019080519060200190610108929190610119565b506040820151816002015590505050565b828054600181600116156101000203166002900490600052602060002090601f016020900481019282601f1061015a57805160ff1916838001178555610188565b82800160010185558215610188579182015b8281111561018757825182559160200191906001019061016c565b5b5090506101959190610199565b5090565b6101bb91905b808211156101b757600081600090555060010161019f565b5090565b90565b610337806101cd6000396000f3fe608060405234801561001057600080fd5b50600436106100415760003560e01c806369e82d0e14610046578063856efd2e14610064578063b809a6ed146100e7575b600080fd5b61004e61019c565b6040518082815260200191505060405180910390f35b61006c6101a2565b6040518080602001828103825283818151815260200191508051906020019080838360005b838110156100ac578082015181840152602081019050610091565b50505050905090810190601f1680156100d95780820380516001836020036101000a031916815260200191505b509250505060405180910390f35b610113600480360360208110156100fd57600080fd5b8101908080359060200190929190505050610240565b6040518084815260200180602001838152602001828103825284818151815260200191508051906020019080838360005b8381101561015f578082015181840152602081019050610144565b50505050905090810190601f16801561018c5780820380516001836020036101000a031916815260200191505b5094505050505060405180910390f35b60015481565b60028054600181600116156101000203166002900480601f0160208091040260200160405190810160405280929190818152602001828054600181600116156101000203166002900480156102385780601f1061020d57610100808354040283529160200191610238565b820191906000526020600020905b81548152906001019060200180831161021b57829003601f168201915b505050505081565b6000602052806000526040600020600091509050806000015490806001018054600181600116156101000203166002900480601f0160208091040260200160405190810160405280929190818152602001828054600181600116156101000203166002900480156102f25780601f106102c7576101008083540402835291602001916102f2565b820191906000526020600020905b8154815290600101906020018083116102d557829003601f168201915b505050505090806002015490508356fea265627a7a72315820a55694796a28778dd438b1686cd700cdb60341121d2cadae672ffd143c1d5aa264736f6c63430005100032",
  "source": "pragma solidity >=0.4.16 <0.9.0;\r\n\r\ncontract Election {\r\n    struct Waifu {\r\n        uint256 id;\r\n        string name;\r\n        uint256 voteCount;\r\n    }\r\n    mapping(uint256 => Waifu) public waifus;\r\n    uint256 public waifuCount;\r\n    string public waifu;\r\n\r\n    constructor() public {\r\n        addWaifu(\"Waifu 1\");\r\n        addWaifu(\"Waifu 2\");\r\n    }\r\n\r\n    function addWaifu(string memory _name) private {\r\n        waifuCount++;\r\n        waifus[waifuCount] = Waifu(waifuCount, _name, 0);\r\n    }\r\n}\r\n",
  "sourcePath": "C:/Users/Aditya/Desktop/waifu-chain/contracts/Election.sol",
  "compiler": {
    "name": "solc",
    "version": "0.5.16+commit.9c3226ce.Emscripten.clang"
  },
  "schemaVersion": "3.4.1",
  "updatedAt": "2021-06-19T19:37:39.607Z",
  "networkType": "ethereum",
  "devdoc": {
    "methods": {}
  },
  "userdoc": {
    "methods": {}
  }
}